{
  "_format": "hh-sol-artifact-1",
  "contractName": "WavePortal",
  "sourceName": "contracts/WavePortal.sol",
  "abi": [
    {
      "inputs": [],
      "stateMutability": "payable",
      "type": "constructor"
    },
    {
      "anonymous": false,
      "inputs": [
        {
          "indexed": true,
          "internalType": "address",
          "name": "from",
          "type": "address"
        },
        {
          "indexed": false,
          "internalType": "uint256",
          "name": "timestamp",
          "type": "uint256"
        },
        {
          "indexed": false,
          "internalType": "string",
          "name": "message",
          "type": "string"
        }
      ],
      "name": "NewWave",
      "type": "event"
    },
    {
      "anonymous": false,
      "inputs": [
        {
          "indexed": true,
          "internalType": "address",
          "name": "from",
          "type": "address"
        },
        {
          "indexed": false,
          "internalType": "uint256",
          "name": "timestamp",
          "type": "uint256"
        },
        {
          "indexed": false,
          "internalType": "uint256",
          "name": "amount",
          "type": "uint256"
        }
      ],
      "name": "NewWinner",
      "type": "event"
    },
    {
      "anonymous": false,
      "inputs": [
        {
          "indexed": true,
          "internalType": "address",
          "name": "previousOwner",
          "type": "address"
        },
        {
          "indexed": true,
          "internalType": "address",
          "name": "newOwner",
          "type": "address"
        }
      ],
      "name": "OwnershipTransferred",
      "type": "event"
    },
    {
      "inputs": [],
      "name": "getAllWaves",
      "outputs": [
        {
          "components": [
            {
              "internalType": "address",
              "name": "waver",
              "type": "address"
            },
            {
              "internalType": "string",
              "name": "message",
              "type": "string"
            },
            {
              "internalType": "uint256",
              "name": "timestamp",
              "type": "uint256"
            }
          ],
          "internalType": "struct WavePortal.Wave[]",
          "name": "",
          "type": "tuple[]"
        }
      ],
      "stateMutability": "view",
      "type": "function"
    },
    {
      "inputs": [],
      "name": "getTotalWaves",
      "outputs": [
        {
          "internalType": "uint256",
          "name": "",
          "type": "uint256"
        }
      ],
      "stateMutability": "view",
      "type": "function"
    },
    {
      "inputs": [
        {
          "internalType": "address",
          "name": "",
          "type": "address"
        }
      ],
      "name": "lastWavedAt",
      "outputs": [
        {
          "internalType": "uint256",
          "name": "",
          "type": "uint256"
        }
      ],
      "stateMutability": "view",
      "type": "function"
    },
    {
      "inputs": [],
      "name": "owner",
      "outputs": [
        {
          "internalType": "address",
          "name": "",
          "type": "address"
        }
      ],
      "stateMutability": "view",
      "type": "function"
    },
    {
      "inputs": [],
      "name": "renounceOwnership",
      "outputs": [],
      "stateMutability": "nonpayable",
      "type": "function"
    },
    {
      "inputs": [],
      "name": "totalWaves",
      "outputs": [
        {
          "internalType": "uint256",
          "name": "",
          "type": "uint256"
        }
      ],
      "stateMutability": "view",
      "type": "function"
    },
    {
      "inputs": [
        {
          "internalType": "address",
          "name": "newOwner",
          "type": "address"
        }
      ],
      "name": "transferOwnership",
      "outputs": [],
      "stateMutability": "nonpayable",
      "type": "function"
    },
    {
      "inputs": [
        {
          "internalType": "uint256",
          "name": "_newCooldownTime",
          "type": "uint256"
        }
      ],
      "name": "updateCooldownTime",
      "outputs": [],
      "stateMutability": "nonpayable",
      "type": "function"
    },
    {
      "inputs": [
        {
          "internalType": "uint256",
          "name": "_newPriceAmount",
          "type": "uint256"
        }
      ],
      "name": "updatePriceAmount",
      "outputs": [],
      "stateMutability": "nonpayable",
      "type": "function"
    },
    {
      "inputs": [
        {
          "internalType": "uint256",
          "name": "_newWinProbability",
          "type": "uint256"
        }
      ],
      "name": "updateWinProbability",
      "outputs": [],
      "stateMutability": "nonpayable",
      "type": "function"
    },
    {
      "inputs": [
        {
          "internalType": "string",
          "name": "_message",
          "type": "string"
        }
      ],
      "name": "wave",
      "outputs": [],
      "stateMutability": "nonpayable",
      "type": "function"
    },
    {
      "inputs": [
        {
          "internalType": "uint256",
          "name": "",
          "type": "uint256"
        }
      ],
      "name": "waves",
      "outputs": [
        {
          "internalType": "address",
          "name": "waver",
          "type": "address"
        },
        {
          "internalType": "string",
          "name": "message",
          "type": "string"
        },
        {
          "internalType": "uint256",
          "name": "timestamp",
          "type": "uint256"
        }
      ],
      "stateMutability": "view",
      "type": "function"
    }
  ],
  "bytecode": "0x6080604052601e600355602860045566038d7ea4c68000600555620000396200002d6200006160201b60201c565b6200006960201b60201c565b606444426200004991906200012d565b62000055919062000194565b6002819055506200022a565b600033905090565b60008060009054906101000a900473ffffffffffffffffffffffffffffffffffffffff169050816000806101000a81548173ffffffffffffffffffffffffffffffffffffffff021916908373ffffffffffffffffffffffffffffffffffffffff1602179055508173ffffffffffffffffffffffffffffffffffffffff168173ffffffffffffffffffffffffffffffffffffffff167f8be0079c531659141344cd1fd0a4f28419497f9722a3daafe3b4186f6b6457e060405160405180910390a35050565b60006200013a826200018a565b915062000147836200018a565b9250827fffffffffffffffffffffffffffffffffffffffffffffffffffffffffffffffff038211156200017f576200017e620001cc565b5b828201905092915050565b6000819050919050565b6000620001a1826200018a565b9150620001ae836200018a565b925082620001c157620001c0620001fb565b5b828206905092915050565b7f4e487b7100000000000000000000000000000000000000000000000000000000600052601160045260246000fd5b7f4e487b7100000000000000000000000000000000000000000000000000000000600052601260045260246000fd5b6116d0806200023a6000396000f3fe608060405234801561001057600080fd5b50600436106100b45760003560e01c80639a2cdc08116100715780639a2cdc0814610153578063a42a466314610171578063bd43a908146101a1578063c781267a146101bf578063c979f885146101f1578063f2fde38b1461020d576100b4565b8063291bcab3146100b9578063449d46c0146100d757806345c08e6e146100f3578063715018a61461010f5780637f1a2c4d146101195780638da5cb5b14610135575b600080fd5b6100c1610229565b6040516100ce9190611171565b60405180910390f35b6100f160048036038101906100ec9190610d7e565b61022f565b005b61010d60048036038101906101089190610dbf565b610598565b005b61011761061e565b005b610133600480360381019061012e9190610dbf565b6106a6565b005b61013d61072c565b60405161014a9190611056565b60405180910390f35b61015b610755565b6040516101689190611171565b60405180910390f35b61018b60048036038101906101869190610d55565b61075f565b6040516101989190611171565b60405180910390f35b6101a9610777565b6040516101b691906110af565b60405180910390f35b6101d960048036038101906101d49190610dbf565b6108c8565b6040516101e893929190611071565b60405180910390f35b61020b60048036038101906102069190610dbf565b6109aa565b005b61022760048036038101906102229190610d55565b610a30565b005b60015481565b42600354600660003373ffffffffffffffffffffffffffffffffffffffff1673ffffffffffffffffffffffffffffffffffffffff1681526020019081526020016000205461027d91906112ac565b106102bd576040517f08c379a00000000000000000000000000000000000000000000000000000000081526004016102b490611151565b60405180910390fd5b600160008154809291906102d0906113e3565b9190505550600760405180606001604052803373ffffffffffffffffffffffffffffffffffffffff16815260200183815260200142815250908060018154018082558091505060019003906000526020600020906003020160009091909190915060008201518160000160006101000a81548173ffffffffffffffffffffffffffffffffffffffff021916908373ffffffffffffffffffffffffffffffffffffffff1602179055506020820151816001019080519060200190610394929190610c20565b506040820151816002015550506103a9610b28565b60028190555042600660003373ffffffffffffffffffffffffffffffffffffffff1673ffffffffffffffffffffffffffffffffffffffff168152602001908152602001600020819055506004546002541161054557476005541115610443576040517f08c379a000000000000000000000000000000000000000000000000000000000815260040161043a906110f1565b60405180910390fd5b60003373ffffffffffffffffffffffffffffffffffffffff1660055460405161046b90611041565b60006040518083038185875af1925050503d80600081146104a8576040519150601f19603f3d011682016040523d82523d6000602084013e6104ad565b606091505b50509050806104f1576040517f08c379a00000000000000000000000000000000000000000000000000000000081526004016104e890611111565b60405180910390fd5b3373ffffffffffffffffffffffffffffffffffffffff167fc92288394ef32dd1ce054c884b9a003055b8d8d63daf2e1c2d3385bdc59b65c24260055460405161053b9291906111bc565b60405180910390a2505b3373ffffffffffffffffffffffffffffffffffffffff167f5f7e16dc676677766a70e9c5628aa6c54ddb8b6e5188e2ae1e1f17f1ffbea716428360405161058d92919061118c565b60405180910390a250565b6105a0610b54565b73ffffffffffffffffffffffffffffffffffffffff166105be61072c565b73ffffffffffffffffffffffffffffffffffffffff1614610614576040517f08c379a000000000000000000000000000000000000000000000000000000000815260040161060b90611131565b60405180910390fd5b8060038190555050565b610626610b54565b73ffffffffffffffffffffffffffffffffffffffff1661064461072c565b73ffffffffffffffffffffffffffffffffffffffff161461069a576040517f08c379a000000000000000000000000000000000000000000000000000000000815260040161069190611131565b60405180910390fd5b6106a46000610b5c565b565b6106ae610b54565b73ffffffffffffffffffffffffffffffffffffffff166106cc61072c565b73ffffffffffffffffffffffffffffffffffffffff1614610722576040517f08c379a000000000000000000000000000000000000000000000000000000000815260040161071990611131565b60405180910390fd5b8060048190555050565b60008060009054906101000a900473ffffffffffffffffffffffffffffffffffffffff16905090565b6000600154905090565b60066020528060005260406000206000915090505481565b60606007805480602002602001604051908101604052809291908181526020016000905b828210156108bf57838290600052602060002090600302016040518060600160405290816000820160009054906101000a900473ffffffffffffffffffffffffffffffffffffffff1673ffffffffffffffffffffffffffffffffffffffff1673ffffffffffffffffffffffffffffffffffffffff16815260200160018201805461082490611380565b80601f016020809104026020016040519081016040528092919081815260200182805461085090611380565b801561089d5780601f106108725761010080835404028352916020019161089d565b820191906000526020600020905b81548152906001019060200180831161088057829003601f168201915b505050505081526020016002820154815250508152602001906001019061079b565b50505050905090565b600781815481106108d857600080fd5b90600052602060002090600302016000915090508060000160009054906101000a900473ffffffffffffffffffffffffffffffffffffffff169080600101805461092190611380565b80601f016020809104026020016040519081016040528092919081815260200182805461094d90611380565b801561099a5780601f1061096f5761010080835404028352916020019161099a565b820191906000526020600020905b81548152906001019060200180831161097d57829003601f168201915b5050505050908060020154905083565b6109b2610b54565b73ffffffffffffffffffffffffffffffffffffffff166109d061072c565b73ffffffffffffffffffffffffffffffffffffffff1614610a26576040517f08c379a0000000000000000000000000000000000000000000000000000000008152600401610a1d90611131565b60405180910390fd5b8060058190555050565b610a38610b54565b73ffffffffffffffffffffffffffffffffffffffff16610a5661072c565b73ffffffffffffffffffffffffffffffffffffffff1614610aac576040517f08c379a0000000000000000000000000000000000000000000000000000000008152600401610aa390611131565b60405180910390fd5b600073ffffffffffffffffffffffffffffffffffffffff168173ffffffffffffffffffffffffffffffffffffffff161415610b1c576040517f08c379a0000000000000000000000000000000000000000000000000000000008152600401610b13906110d1565b60405180910390fd5b610b2581610b5c565b50565b600060646002544244610b3b91906112ac565b610b4591906112ac565b610b4f919061142c565b905090565b600033905090565b60008060009054906101000a900473ffffffffffffffffffffffffffffffffffffffff169050816000806101000a81548173ffffffffffffffffffffffffffffffffffffffff021916908373ffffffffffffffffffffffffffffffffffffffff1602179055508173ffffffffffffffffffffffffffffffffffffffff168173ffffffffffffffffffffffffffffffffffffffff167f8be0079c531659141344cd1fd0a4f28419497f9722a3daafe3b4186f6b6457e060405160405180910390a35050565b828054610c2c90611380565b90600052602060002090601f016020900481019282610c4e5760008555610c95565b82601f10610c6757805160ff1916838001178555610c95565b82800160010185558215610c95579182015b82811115610c94578251825591602001919060010190610c79565b5b509050610ca29190610ca6565b5090565b5b80821115610cbf576000816000905550600101610ca7565b5090565b6000610cd6610cd18461120a565b6111e5565b905082815260208101848484011115610cee57600080fd5b610cf984828561133e565b509392505050565b600081359050610d108161166c565b92915050565b600082601f830112610d2757600080fd5b8135610d37848260208601610cc3565b91505092915050565b600081359050610d4f81611683565b92915050565b600060208284031215610d6757600080fd5b6000610d7584828501610d01565b91505092915050565b600060208284031215610d9057600080fd5b600082013567ffffffffffffffff811115610daa57600080fd5b610db684828501610d16565b91505092915050565b600060208284031215610dd157600080fd5b6000610ddf84828501610d40565b91505092915050565b6000610df48383610fd3565b905092915050565b610e0581611302565b82525050565b610e1481611302565b82525050565b6000610e258261124b565b610e2f818561126e565b935083602082028501610e418561123b565b8060005b85811015610e7d5784840389528151610e5e8582610de8565b9450610e6983611261565b925060208a01995050600181019050610e45565b50829750879550505050505092915050565b6000610e9a82611256565b610ea4818561128a565b9350610eb481856020860161134d565b610ebd81611519565b840191505092915050565b6000610ed382611256565b610edd818561129b565b9350610eed81856020860161134d565b610ef681611519565b840191505092915050565b6000610f0e60268361129b565b9150610f198261152a565b604082019050919050565b6000610f3160348361129b565b9150610f3c82611579565b604082019050919050565b6000610f5460278361129b565b9150610f5f826115c8565b604082019050919050565b6000610f7760208361129b565b9150610f8282611617565b602082019050919050565b6000610f9a60008361127f565b9150610fa582611640565b600082019050919050565b6000610fbd600c8361129b565b9150610fc882611643565b602082019050919050565b6000606083016000830151610feb6000860182610dfc565b50602083015184820360208601526110038282610e8f565b91505060408301516110186040860182611023565b508091505092915050565b61102c81611334565b82525050565b61103b81611334565b82525050565b600061104c82610f8d565b9150819050919050565b600060208201905061106b6000830184610e0b565b92915050565b60006060820190506110866000830186610e0b565b81810360208301526110988185610ec8565b90506110a76040830184611032565b949350505050565b600060208201905081810360008301526110c98184610e1a565b905092915050565b600060208201905081810360008301526110ea81610f01565b9050919050565b6000602082019050818103600083015261110a81610f24565b9050919050565b6000602082019050818103600083015261112a81610f47565b9050919050565b6000602082019050818103600083015261114a81610f6a565b9050919050565b6000602082019050818103600083015261116a81610fb0565b9050919050565b60006020820190506111866000830184611032565b92915050565b60006040820190506111a16000830185611032565b81810360208301526111b38184610ec8565b90509392505050565b60006040820190506111d16000830185611032565b6111de6020830184611032565b9392505050565b60006111ef611200565b90506111fb82826113b2565b919050565b6000604051905090565b600067ffffffffffffffff821115611225576112246114ea565b5b61122e82611519565b9050602081019050919050565b6000819050602082019050919050565b600081519050919050565b600081519050919050565b6000602082019050919050565b600082825260208201905092915050565b600081905092915050565b600082825260208201905092915050565b600082825260208201905092915050565b60006112b782611334565b91506112c283611334565b9250827fffffffffffffffffffffffffffffffffffffffffffffffffffffffffffffffff038211156112f7576112f661145d565b5b828201905092915050565b600061130d82611314565b9050919050565b600073ffffffffffffffffffffffffffffffffffffffff82169050919050565b6000819050919050565b82818337600083830152505050565b60005b8381101561136b578082015181840152602081019050611350565b8381111561137a576000848401525b50505050565b6000600282049050600182168061139857607f821691505b602082108114156113ac576113ab6114bb565b5b50919050565b6113bb82611519565b810181811067ffffffffffffffff821117156113da576113d96114ea565b5b80604052505050565b60006113ee82611334565b91507fffffffffffffffffffffffffffffffffffffffffffffffffffffffffffffffff8214156114215761142061145d565b5b600182019050919050565b600061143782611334565b915061144283611334565b9250826114525761145161148c565b5b828206905092915050565b7f4e487b7100000000000000000000000000000000000000000000000000000000600052601160045260246000fd5b7f4e487b7100000000000000000000000000000000000000000000000000000000600052601260045260246000fd5b7f4e487b7100000000000000000000000000000000000000000000000000000000600052602260045260246000fd5b7f4e487b7100000000000000000000000000000000000000000000000000000000600052604160045260246000fd5b6000601f19601f8301169050919050565b7f4f776e61626c653a206e6577206f776e657220697320746865207a65726f206160008201527f6464726573730000000000000000000000000000000000000000000000000000602082015250565b7f547279696e6720746f207769746864726177206d6f7265206d6f6e657920746860008201527f616e2074686520636f6e7472616374206861732e000000000000000000000000602082015250565b7f4661696c656420746f207769746864726177206d6f6e65792066726f6d20636f60008201527f6e74726163742e00000000000000000000000000000000000000000000000000602082015250565b7f4f776e61626c653a2063616c6c6572206973206e6f7420746865206f776e6572600082015250565b50565b7f57616974203330207365632e0000000000000000000000000000000000000000600082015250565b61167581611302565b811461168057600080fd5b50565b61168c81611334565b811461169757600080fd5b5056fea26469706673582212205cb51bb70d6e2cd2669769fc0a5ac60345a79efe6f50fb5224e3d611ed5846f864736f6c63430008040033",
  "linkReferences": {},
  "deployedLinkReferences": {}
}