{
  "_format": "hh-sol-artifact-1",
  "contractName": "WavePortal",
  "sourceName": "contracts/WavePortal.sol",
  "abi": [
    {
      "inputs": [],
      "stateMutability": "nonpayable",
      "type": "constructor"
    },
    {
      "anonymous": false,
      "inputs": [
        {
          "indexed": true,
          "internalType": "address",
          "name": "from",
          "type": "address"
        },
        {
          "indexed": false,
          "internalType": "uint256",
          "name": "timestamp",
          "type": "uint256"
        },
        {
          "indexed": false,
          "internalType": "string",
          "name": "message",
          "type": "string"
        }
      ],
      "name": "NewWave",
      "type": "event"
    },
    {
      "inputs": [
        {
          "internalType": "address",
          "name": "",
          "type": "address"
        }
      ],
      "name": "countOfWaves",
      "outputs": [
        {
          "internalType": "uint256",
          "name": "",
          "type": "uint256"
        }
      ],
      "stateMutability": "view",
      "type": "function"
    },
    {
      "inputs": [],
      "name": "getAllWaves",
      "outputs": [
        {
          "components": [
            {
              "internalType": "address",
              "name": "waver",
              "type": "address"
            },
            {
              "internalType": "string",
              "name": "message",
              "type": "string"
            },
            {
              "internalType": "uint256",
              "name": "timestamp",
              "type": "uint256"
            }
          ],
          "internalType": "struct WavePortal.Wave[]",
          "name": "",
          "type": "tuple[]"
        }
      ],
      "stateMutability": "view",
      "type": "function"
    },
    {
      "inputs": [],
      "name": "getTotalWaves",
      "outputs": [
        {
          "internalType": "uint256",
          "name": "",
          "type": "uint256"
        }
      ],
      "stateMutability": "view",
      "type": "function"
    },
    {
      "inputs": [
        {
          "internalType": "string",
          "name": "_message",
          "type": "string"
        }
      ],
      "name": "wave",
      "outputs": [],
      "stateMutability": "nonpayable",
      "type": "function"
    }
  ],
  "bytecode": "0x60806040523480156200001157600080fd5b506200004160405180606001604052806025815260200162000ce5602591396200004760201b620003d61760201c565b620001db565b620000e7816040516024016200005e919062000154565b6040516020818303038152906040527f41304fac000000000000000000000000000000000000000000000000000000007bffffffffffffffffffffffffffffffffffffffffffffffffffffffff19166020820180517bffffffffffffffffffffffffffffffffffffffffffffffffffffffff8381831617835250505050620000ea60201b60201c565b50565b60008151905060006a636f6e736f6c652e6c6f679050602083016000808483855afa5050505050565b6000620001208262000178565b6200012c818562000183565b93506200013e81856020860162000194565b6200014981620001ca565b840191505092915050565b6000602082019050818103600083015262000170818462000113565b905092915050565b600081519050919050565b600082825260208201905092915050565b60005b83811015620001b457808201518184015260208101905062000197565b83811115620001c4576000848401525b50505050565b6000601f19601f8301169050919050565b610afa80620001eb6000396000f3fe608060405234801561001057600080fd5b506004361061004c5760003560e01c8063449d46c014610051578063741f80831461006d5780639a2cdc081461009d578063bd43a908146100bb575b600080fd5b61006b600480360381019061006691906105e1565b6100d9565b005b610087600480360381019061008291906105b8565b610264565b60405161009491906107de565b60405180910390f35b6100a561027c565b6040516100b291906107de565b60405180910390f35b6100c3610285565b6040516100d0919061079a565b60405180910390f35b6000808154809291906100eb906109c6565b9190505550600260003373ffffffffffffffffffffffffffffffffffffffff1673ffffffffffffffffffffffffffffffffffffffff1681526020019081526020016000206000815480929190610140906109c6565b9190505550600160405180606001604052803373ffffffffffffffffffffffffffffffffffffffff16815260200183815260200142815250908060018154018082558091505060019003906000526020600020906003020160009091909190915060008201518160000160006101000a81548173ffffffffffffffffffffffffffffffffffffffff021916908373ffffffffffffffffffffffffffffffffffffffff1602179055506020820151816001019080519060200190610204929190610498565b506040820151816002015550503373ffffffffffffffffffffffffffffffffffffffff167f5f7e16dc676677766a70e9c5628aa6c54ddb8b6e5188e2ae1e1f17f1ffbea71642836040516102599291906107f9565b60405180910390a250565b60026020528060005260406000206000915090505481565b60008054905090565b60606001805480602002602001604051908101604052809291908181526020016000905b828210156103cd57838290600052602060002090600302016040518060600160405290816000820160009054906101000a900473ffffffffffffffffffffffffffffffffffffffff1673ffffffffffffffffffffffffffffffffffffffff1673ffffffffffffffffffffffffffffffffffffffff16815260200160018201805461033290610963565b80601f016020809104026020016040519081016040528092919081815260200182805461035e90610963565b80156103ab5780601f10610380576101008083540402835291602001916103ab565b820191906000526020600020905b81548152906001019060200180831161038e57829003601f168201915b50505050508152602001600282015481525050815260200190600101906102a9565b50505050905090565b61046c816040516024016103ea91906107bc565b6040516020818303038152906040527f41304fac000000000000000000000000000000000000000000000000000000007bffffffffffffffffffffffffffffffffffffffffffffffffffffffff19166020820180517bffffffffffffffffffffffffffffffffffffffffffffffffffffffff838183161783525050505061046f565b50565b60008151905060006a636f6e736f6c652e6c6f679050602083016000808483855afa5050505050565b8280546104a490610963565b90600052602060002090601f0160209004810192826104c6576000855561050d565b82601f106104df57805160ff191683800117855561050d565b8280016001018555821561050d579182015b8281111561050c5782518255916020019190600101906104f1565b5b50905061051a919061051e565b5090565b5b8082111561053757600081600090555060010161051f565b5090565b600061054e6105498461084e565b610829565b90508281526020810184848401111561056657600080fd5b610571848285610921565b509392505050565b60008135905061058881610aad565b92915050565b600082601f83011261059f57600080fd5b81356105af84826020860161053b565b91505092915050565b6000602082840312156105ca57600080fd5b60006105d884828501610579565b91505092915050565b6000602082840312156105f357600080fd5b600082013567ffffffffffffffff81111561060d57600080fd5b6106198482850161058e565b91505092915050565b600061062e838361072c565b905092915050565b61063f816108e5565b82525050565b60006106508261088f565b61065a81856108b2565b93508360208202850161066c8561087f565b8060005b858110156106a857848403895281516106898582610622565b9450610694836108a5565b925060208a01995050600181019050610670565b50829750879550505050505092915050565b60006106c58261089a565b6106cf81856108c3565b93506106df818560208601610930565b6106e881610a9c565b840191505092915050565b60006106fe8261089a565b61070881856108d4565b9350610718818560208601610930565b61072181610a9c565b840191505092915050565b60006060830160008301516107446000860182610636565b506020830151848203602086015261075c82826106ba565b9150506040830151610771604086018261077c565b508091505092915050565b61078581610917565b82525050565b61079481610917565b82525050565b600060208201905081810360008301526107b48184610645565b905092915050565b600060208201905081810360008301526107d681846106f3565b905092915050565b60006020820190506107f3600083018461078b565b92915050565b600060408201905061080e600083018561078b565b818103602083015261082081846106f3565b90509392505050565b6000610833610844565b905061083f8282610995565b919050565b6000604051905090565b600067ffffffffffffffff82111561086957610868610a6d565b5b61087282610a9c565b9050602081019050919050565b6000819050602082019050919050565b600081519050919050565b600081519050919050565b6000602082019050919050565b600082825260208201905092915050565b600082825260208201905092915050565b600082825260208201905092915050565b60006108f0826108f7565b9050919050565b600073ffffffffffffffffffffffffffffffffffffffff82169050919050565b6000819050919050565b82818337600083830152505050565b60005b8381101561094e578082015181840152602081019050610933565b8381111561095d576000848401525b50505050565b6000600282049050600182168061097b57607f821691505b6020821081141561098f5761098e610a3e565b5b50919050565b61099e82610a9c565b810181811067ffffffffffffffff821117156109bd576109bc610a6d565b5b80604052505050565b60006109d182610917565b91507fffffffffffffffffffffffffffffffffffffffffffffffffffffffffffffffff821415610a0457610a03610a0f565b5b600182019050919050565b7f4e487b7100000000000000000000000000000000000000000000000000000000600052601160045260246000fd5b7f4e487b7100000000000000000000000000000000000000000000000000000000600052602260045260246000fd5b7f4e487b7100000000000000000000000000000000000000000000000000000000600052604160045260246000fd5b6000601f19601f8301169050919050565b610ab6816108e5565b8114610ac157600080fd5b5056fea2646970667358221220a94c081107285be0b9d9815440be2e46505ca510ca5eaf223a48a3e44d7cebd564736f6c63430008040033596f20796f2c204920616d206120636f6e747261637420616e64204920616d20736d617274",
  "linkReferences": {},
  "deployedLinkReferences": {}
}